:020000040800F2
:10000000005000205D010008A1010008A1010008C6
:10001000A1010008A1010008A101000800000000E2
:10002000000000000000000000000000A101000826
:10003000A101000800000000A10100082D15000822
:10004000A1010008A1010008A1010008A101000808
:10005000A1010008A1010008A1010008A1010008F8
:10006000A1010008A1010008A1010008A1010008E8
:10007000A1010008A1010008A1010008A1010008D8
:10008000A1010008A1010008A1010008A1010008C8
:10009000A1010008A1010008A1010008A1010008B8
:1000A000A1010008A1010008A1010008A1010008A8
:1000B000A1010008A1010008A1010008A101000898
:1000C000A1010008A1010008A1010008A101000888
:1000D000A10100085D180008A1010008A1010008A5
:1000E000A1010008A1010008A10100080000000012
:1000F0000000000000000000000000000000000000
:0C01000000000000000000005FF808F1A3
:10010C0010B5054C237833B9044B13B10448AFF345
:10011C0000800123237010BD2C0000200000000083
:10012C00F83E000808B5034B1BB103490348AFF375
:10013C00008008BD0000000030000020F83E0008E0
:10014C00034613F8012B002AFBD1181A013870470B
:10015C00002103E00A4B5B584350043109480A4B19
:10016C0042189A42F6D3094A02E0002342F8043BB3
:10017C00074B9A42F9D301F051F901F097FB704704
:10018C00944B0008000000202C0000202C000020C4
:10019C0014020020FEE7000038B50225082329468A
:1001AC0004240A4A10F0800F03F1FF3351614FEA27
:1001BC00400014BF1461546113F0FF03C0B211610D
:1001CC00F0D103F09FFE556138BD00BF000801401F
:1001DC0038B504230125084C02222361656103F024
:1001EC0091FE226103F08EFE6261FFF7D5FF03F0F2
:1001FC0089FE256138BD00BF0008014038B50423D5
:10020C000125084C02226361656103F07BFE2261CB
:10021C0003F078FE6261FFF7BFFF03F073FE256108
:10022C0038BD00BF00080140024A10601368002B63
:10023C00FCD170475800002010B5082405496420F3
:10024C004C61FFF7F1FF0C61C820BDE81040FFF7CF
:10025C00EBBF00BF00080140054B1A46988113897B
:10026C001906FCD41389DB07F9D59089C0B2704705
:10027C000030014038B51025044CC0206561FFF7F3
:10028C00EBFF0020FFF7E8FF256138BD00080140B7
:10029C0038B51025044C40206561FFF7DDFF0020C8
:1002AC00FFF7DAFF256138BD0008014070B5102654
:1002BC000446064D80206E61FFF7CEFF2046FFF707
:1002CC00CBFF2E61BDE8704003F01CBE000801405E
:1002DC0070B510260446064D00206E61FFF7BCFF7A
:1002EC002046FFF7B9FF2E61BDE8704003F00ABE4F
:1002FC000008014008B52020FFF7EAFF0020FFF7B7
:10030C00D5FF2120FFF7E4FF0020FFF7CFFF2220CD
:10031C00FFF7DEFF0020FFF7C9FF2320FFF7D8FF10
:10032C00BDE808400020FFF7C1BF00BF08B524207E
:10033C00FFF7CEFF4020FFF7B9FF2520FFF7C8FFDE
:10034C00BDE808400120FFF7B1BF00BF08B526206B
:10035C00FFF7BEFF0020FFF7A9FF2720FFF7B8FF2C
:10036C000020FFF7A3FF2820FFF7B2FF0020FFF7C4
:10037C009DFF2920FFF7ACFFBDE808400020FFF7E8
:10038C0095BF00BF08B55020FFF7A2FF0020FFF774
:10039C008DFF5120FFF79CFF0020FFF787FF5220B5
:1003AC00FFF796FF0020FFF781FF5320FFF790FF28
:1003BC00BDE808400020FFF779BF00BF08B5542006
:1003CC00FFF786FF4020FFF771FF5520FFF780FFF6
:1003DC00BDE808400120FFF769BF00BF08B55620F3
:1003EC00FFF776FF0020FFF761FF5720FFF770FF44
:1003FC000020FFF75BFF5820FFF76AFF0020FFF794
:10040C0055FF5920FFF764FFBDE808400020FFF7B7
:10041C004DBF00BF08B55A20FFF75AFF4020FFF729
:10042C0045FF5B20FFF754FF0120FFF73FFF5C20E7
:10043C00FFF74EFFC020FFF739FF5D20FFF748FFA5
:10044C00BDE808400320FFF731BF00BF08B5D52039
:10045C00FFF73EFF0020FFF729FFD620FFF738FFFC
:10046C000020FFF723FFD720FFF732FFBDE808403D
:10047C000020FFF71BBF00BF08B50320FFF728FFC4
:10048C00FFF7F8FEBDE8084040F00400C0B2FFF7EB
:10049C000DBF00BF10B50446DB20FFF719FFE0B21B
:1004AC00FFF704FFDC20FFF713FFC4F30720FFF76F
:1004BC00FDFEDD20FFF70CFFC4F30740FFF7F6FE4F
:1004CC00DE20FFF705FFBDE810400020FFF7EEBE71
:1004DC0008B5CD20FFF7FCFEFFF7CCFEBDE80840C9
:1004EC0040F01000C0B2FFF7E1BE00BF08B5CC2051
:1004FC00FFF7EEFEFFF7BEFEBDE8084000F0EF0090
:10050C0040F02000FFF7D2BE08B5CC20FFF7E0FE8C
:10051C00FFF7B0FEBDE8084000F03F00FFF7C6BE95
:10052C0010B50446BC20FFF7D3FE0020FFF7BEFE3B
:10053C00BD20FFF7CDFEC4F30720FFF7B7FEBE20AA
:10054C00FFF7C6FEC4F30740FFF7B0FEBF20FFF76E
:10055C00BFFEBDE810400020FFF7A8BE08B5B720CD
:10056C00FFF7B6FEFFF786FEBDE8084040F04000FE
:10057C00C0B2FFF79BBE00BF08B5B720FFF7A8FEBF
:10058C00FFF778FEBDE8084060F07F00C0B2FFF7CF
:10059C008DBE00BFB62008B5FFF79AFEFFF76AFEC6
:1005AC00C307FBD408BD00BF08B5B620FFF790FE0B
:1005BC00FFF760FEBDE8084040F00100C0B2FFF755
:1005CC0075BE00BF762008B5FFF782FEE020FFF76E
:1005DC006DFEFFF75DFE0307FBD408BD38B504467E
:1005EC000D466C20FFF774FEE0B2FFF75FFE6D2046
:1005FC00FFF76EFE200AFFF759FE6E20FFF768FE2C
:10060C00E8B2FFF753FE6F20FFF762FEBDE83840FB
:10061C000320FFF74BBE00BF38B505460C466820DB
:10062C00FFF756FEE8B2FFF741FE6920FFF750FED8
:10063C00280AFFF73BFE6A20FFF74AFEE0B2FFF7FD
:10064C0035FE6B20FFF744FE200ABDE83840FFF76B
:10065C002DBE00BF672008B5FFF73AFE8020FFF7DC
:10066C0025FEFFF715FE0307FBD408BD38B505467C
:10067C000C466320FFF72CFEE8B2FFF717FE642050
:10068C00FFF726FE280AFFF711FE6520FFF720FE74
:10069C00E0B2FFF70BFE6620FFF71AFE200ABDE85A
:1006AC003840FFF703BE00BF08B50120FFF710FE6E
:1006BC00FFF7E0FDBDE8084040F00200C0B2FFF7D4
:1006CC00F5BD00BF10B50446D220FFF701FE200A8D
:1006DC00FFF7ECFDD320FFF7FBFDC4F3C700FFF7DA
:1006EC00E5FDD420FFF7F4FDE00000F0F800BDE8D4
:1006FC001040FFF7DBBD00BF08B580B2FFF7E2FF8B
:10070C0000210846FFF788FF4FF470714FF4A0707A
:10071C00FFF764FFFFF756FFFFF7BAFD0307FBD4A3
:10072C0008BD00BF08B51020FFF7D2FDFFF7A2FDF2
:10073C00BDE8084000F0F70040F00400FFF7B6BD3C
:10074C0008B5FFF7EFFFFFF7D5FDFFF7EFFDFFF75C
:10075C00FDFDFFF717FEFFF731FEFFF73FFEFFF73A
:10076C0059FEBDE808400020FFF7C6BF08B5FFF7EB
:10077C00E7FF4FF4C060FFF7A5FF00213C20FFF717
:10078C004BFF40F2BF313C20FFF728FFFFF762FF21
:10079C0000214FF48470FFF73FFF40F2BF314FF45C
:1007AC008470FFF71BFFBDE80840FFF753BF00BF85
:1007BC0008B55E20FFF78CFDFFF75CFDBDE8084037
:1007CC0000F0FB00FFF772BD08B50320FFF780FDBA
:1007DC00FFF750FDBDE8084000F0FB00FFF766BDD9
:1007EC002DE9F04F89B00292BDF848201C460491C7
:1007FC00059307920690FFF73FFECC20FFF768FDAC
:10080C00FFF738FD4FF0000B00F0BF0040F0800008
:10081C00FFF74CFD2046CDF80CB0FFF753FF039CBF
:10082C00600300F59D1000F5E860FFF733FE069DB0
:10083C005FFA84F82B781BB34FF0000A56465446E7
:10084C0057464FEA980908F0F2024FEA491909F1A4
:10085C006809019208F003085FB3FA1C944228D18E
:10086C00072C26D8019B002B00F0A880FFF710FD69
:10087C000106FBD44FF0010A00272B78002BEBD19B
:10088C00039B059801331C460393FFF71BFF102CA9
:10089C00C5D140F2BE339B4540F2C480FFF7F8FC53
:1008AC000307FBD4FFF730FE09B0BDE8F04FFFF7AC
:1008BC008BBF2E2B48D03A2B47D0029B4BB1049BBD
:1008CC0004EB060B9B4580F2A980029B9B4580F2B2
:1008DC00A18006EB0A0B0BEB440B08EB4B0B4FEA1E
:1008EC000B1B0BF1380B1FFA8BFBFFF7D1FC02062D
:1008FC00FBD459464846FFF7B9FEFFF7C9FC03067F
:10090C00FBD40420FFF7E4FCFFF7C2FC0006FBD489
:10091C000020FFF7CBFCFFF7BBFC0106FBD42878CB
:10092C001038C0B2FFF7C2FCFFF7B2FC0206FBD4D2
:10093C000134E4B2FFF7ACFC0306FBD40135FFF73E
:10094C00A7FC0206FBD498E72746019B33B101367E
:10095C00F6B2FFF79DFC0106FBD4EFE706EB0A0BA2
:10096C000BEB440B08EB4B0B4FEA0B1B0BF1380B4F
:10097C001FFA8BFBFFF78CFC0006FBD4594648464C
:10098C00FFF774FEFFF784FC0106FBD40420FFF78D
:10099C009FFCFFF77DFC0206FBD40020FFF786FCD2
:1009AC00FFF776FC0306FBD428781038C0B2FFF7AB
:1009BC007DFCFFF76DFC0006FBD4C8E706EB440B8F
:1009CC0008EB4B0B4FEA0B1B0BF1380B1FFA8BFB95
:1009DC00FFF75EFC0106FBD459464846FFF746FE7E
:1009EC00FFF756FC0206FBD40420FFF771FCFFF75F
:1009FC004FFC0306FBD40020FFF758FCFFF748FC24
:100A0C000706FBD41020FFF751FCFFF741FC000652
:100A1C00FBD42BE70598FFF755FE5AE70798FFF72D
:100A2C0051FE52E70020FFF74DFE0BF1100168203C
:100A3C0089B2FFF7F1FD40F2BF31E820FFF7CEFDA0
:100A4C00FFF7C0FD2AE700BF10B50446FFF714FD01
:100A5C000420FFF73DFC207848B1FFF727FCFFF797
:100A6C0017FC0206FBD414F8010F0028F5D1FFF790
:100A7C000FFC0307FBD4BDE81040FFF7A5BE00BF79
:100A8C0030B41E4A536803F00C03082B21D01C4BC6
:100A9C0003601A4A1B4C51680368C1F30311615C73
:100AAC00194DCB4043605168C1F30221615C23FABC
:100ABC0001F181605168C1F3C221615CCB40C3601C
:100ACC005268C2F38132AA5C30BCB3FBF2F303610F
:100ADC00704753685168C3F38343C90303F102039E
:100AEC0007D55268920304D4054A02FB03F3036052
:100AFC00CFE7064A02FB03F30360CAE7001002408B
:100B0C0000127A00040000200000002000093D00C3
:100B1C00CB782DE9F04103F00F06DB0644BF8B7850
:100B2C001E430B782BB3002301274FF00F080568E9
:100B3C0002E00133082B1BD00C8807FA03F232EACF
:100B4C000404F6D19C0091F803C008FA04FE25EACF
:100B5C000E0506FA04F4BCF1280F45EA040530D062
:100B6C00BCF1480F03F1010308BF0261082BE3D16C
:100B7C0005600C88FF2C22D908234FF0010C4FF094
:100B8C000F0E476800E00C880CFA03F535EA0402F6
:100B9C0011D1CC789A00282C04BF4561CC78203A2E
:100BAC000EFA02F827EA080706FA02F2482C47EA7E
:100BBC00020708BF05610133102BE4D14760BDE883
:100BCC00F0814261B5E700BF10B5FB4B82B001A9C3
:100BDC00FA4801930D24FFF79BFF0461FF20FFF7F8
:100BEC000DFB7720FFF7F4FA0120FFF7F1FA002054
:100BFC00FFF7EEFA0020FFF7EBFA1320FFF7E8FA05
:100C0C00EF20FFF7FBFA0820FFF7E2FAFF20FFF7CF
:100C1C00F5FA7720FFF7DCFA0120FFF7D9FA00206C
:100C2C00FFF7D6FA0020FFF7D3FA1020FFF7D0FA1F
:100C3C00C020FFF7E3FA7720FFF7CAFA0020FFF78E
:100C4C00C7FAC120FFF7DAFA0920FFF7C1FA08202A
:100C5C00FFF7BEFAC220FFF7D1FA3720FFF7B8FA38
:100C6C000220FFF7B5FAC320FFF7C8FA8020FFF780
:100C7C00AFFA0520FFF7ACFA2046FFF7A9FACC2013
:100C8C00FFF7BCFA1020FFF7A3FAB020FFF7B6FA73
:100C9C004020FFF79DFA1420FFF79AFA5920FFF72E
:100CAC0097FA1020FFF794FA1220FFF791FA082018
:100CBC00FFF78EFA0320FFF78BFA0920FFF788FA6B
:100CCC000520FFF785FA1E20FFF782FA0520FFF7B3
:100CDC007FFA1420FFF77CFA1020FFF779FA6820CE
:100CEC00FFF776FA3320FFF773FA1520FFF770FA47
:100CFC00B120FFF783FA4020FFF76AFA0820FFF7CC
:100D0C0067FA5320FFF764FA0920FFF761FA112004
:100D1C00FFF75EFA0920FFF75BFA0220FFF758FA9B
:100D2C000720FFF755FA0920FFF752FA1A20FFF7B0
:100D3C004FFA0420FFF74CFA1220FFF749FA122061
:100D4C00FFF746FA6420FFF743FA2920FFF740FA31
:100D5C002920FFF73DFAFF20FFF750FA7720FFF725
:100D6C0037FA0120FFF734FA0020FFF731FA0020A0
:100D7C00FFF72EFA1120FFF72BFAB020FFF73EFAFF
:100D8C006D20FFF725FAB120FFF738FA1D20FFF789
:100D9C001FFAB220FFF732FA8720FFF719FAB320B7
:100DAC00FFF72CFA8020FFF713FAB520FFF726FA8D
:100DBC004920FFF70DFAB720FFF720FA8520FFF73F
:100DCC0007FAB820FFF71AFA2020FFF701FAC12022
:100DDC00FFF714FA7820FFF7FBF9C220FFF70EFAA1
:100DEC007820FFF7F5F9D020FFF708FA8820FFF7F5
:100DFC00EFF9E020FFF702FA0020FFF7E9F90020F5
:100E0C00FFF7E6F90220FFF7E3F9E120FFF7F6F927
:100E1C000220FFF7DDF98C20FFF7DAF90020FFF74D
:100E2C00D7F90020FFF7D4F90320FFF7D1F98C2074
:100E3C00FFF7CEF90020FFF7CBF90020FFF7C8F938
:100E4C000020FFF7C5F93320FFF7C2F93320FFF775
:100E5C00BFF9E220FFF7D2F93320FFF7B9F93320BD
:100E6C00FFF7B6F93320FFF7B3F93320FFF7B0F9EA
:100E7C00C920FFF7ADF93C20FFF7AAF90020FFF7D6
:100E8C00A7F90020FFF7A4F9CA20FFF7A1F93C202D
:100E9C00FFF79EF90020FFF79BF90020FFF798F968
:100EAC000020FFF795F9E320FFF7A8F90020FFF7E2
:100EBC008FF90020FFF78CF93320FFF789F93320E5
:100ECC00FFF786F9E420FFF799F94420FFF780F942
:100EDC004420FFF77DF9E520FFF790F90520FFF797
:100EEC0077F9CD20FFF774F98220FFF771F9822092
:100EFC00FFF76EF90120FFF76BF9C920FFF768F9CE
:100F0C008220FFF765F98220FFF762F90720FFF7CF
:100F1C005FF9CF20FFF75CF98220FFF759F98220A7
:100F2C00FFF756F90320FFF753F9CB20FFF750F9E1
:100F3C008220FFF74DF98220FFF74AF9E620FFF7F0
:100F4C005DF90020FFF744F90020FFF741F9332049
:100F5C00FFF73EF93320FFF73BF9E720FFF74EF997
:100F6C004420FFF735F94420FFF732F9E820FFF76A
:100F7C0045F90620FFF72CF9CE20FFF729F982203E
:100F8C00FFF726F98220FFF723F90220FFF720F95B
:100F9C00CA20FFF71DF98220FFF71AF98220FFF70C
:100FAC0017F90820FFF714F9D020FFF711F9822068
:100FBC00FFF70EF9822003E00F0003100008014038
:100FCC00FFF706F90420FFF703F9CC20FFF700F92F
:100FDC008220FFF7FDF88220FFF7FAF8EB20FFF7ED
:100FEC000DF90820FFF7F4F80120FFF7F1F8E420E1
:100FFC00FFF7EEF8E420FFF7EBF88820FFF7E8F8AE
:10100C000020FFF7E5F84020FFF7E2F8EC20FFF7AF
:10101C00F5F80020FFF7DCF80020FFF7D9F80020E6
:10102C00FFF7D6F8ED20FFF7E9F8FF20FFF7D0F82F
:10103C00F020FFF7CDF80720FFF7CAF86520FFF77F
:10104C00C7F84F20FFF7C4F8FC20FFF7C1F8C22007
:10105C00FFF7BEF82F20FFF7BBF8F220FFF7B8F828
:10106C002C20FFF7B5F8CF20FFF7B2F8F420FFF7EC
:10107C00AFF85620FFF7ACF87020FFF7A9F80F2057
:10108C00FFF7A6F8FF20FFF7A3F8EF20FFF7B6F85D
:10109C001020FFF79DF82046FFF79AF80420FFF781
:1010AC0097F80820FFF794F83F20FFF791F81F20DE
:1010BC00FFF78EF8FF20FFF7A1F87720FFF788F8ED
:1010CC000120FFF785F80020FFF782F80020FFF7DA
:1010DC007FF80020FFF77CF81120FFF78FF87820BD
:1010EC00FFF7A2F83520FFF789F80020FFF770F81A
:1010FC003A20FFF783F86620FFF76AF82920FFF7FC
:10110C007DF802B010BD00BF2DE9F0478F4D0746AA
:10111C0028789DF820A0012865D002280C4691461D
:10112C00984600F009814FF4C060FFF7CBFA10210C
:10113C004220FFF79BFA864B53F824502846FFF7C2
:10114C0083FC0A2C4BD8834B1B78A3BB8248FFF73C
:10115C007BFC0024814E02E03046FFF775FC2846EC
:10116C00FEF7EEFFE1B2C0F10E00884204F101047B
:10117C00F2D84FF44A714220FFF778FA7848FFF71B
:10118C0063FC4FF468714220FFF770FAB9F1000F5D
:10119C0021D07448FFF758FC734B1B787BB14FF68A
:1011AC00E0735246089341463846BDE8F0474FF687
:1011BC00F073FFF715BB6D48FFF746FCC9E74FF41A
:1011CC00C0635246089341463846BDE8F04748F2A2
:1011DC00F073FFF705BB6148FFF736FCDCE76448AA
:1011EC00FFF732FCB5E7FFF731F94EF6E400FFF7F5
:1011FC0069FAFFF77BF9CD20FFF76AF8FFF73AF8A9
:10120C0000F0F70040F00400FFF750F8CD20FFF796
:10121C005FF8FFF72FF800F0FD0040F00100FFF73A
:10122C0045F8FFF755F94FF48871F020FFF71EFAD7
:10123C003846FFF709FC02232B70FFF707F94FF430
:10124C00C060FFF73FFAFFF751F9CD20FFF740F8E8
:10125C00FFF710F800F0F300FFF728F8CD20FFF7A8
:10126C0037F8FFF707F800F0FC00FFF71FF8FFF75F
:10127C002FF9404C404DFFF717FAFFF77DF95E2030
:10128C00FFF726F8FEF7F6FF40F00400C0B2FFF7B8
:10129C000DF8FFF763F9BB20FFF71AF80020FFF7F2
:1012AC0005F8C020FFF714F84020FEF7FFFFC1201F
:1012BC00FFF70EF8C4F30720FEF7F8FFC220FFF784
:1012CC0007F8C4F30740FEF7F1FFC320FFF700F85F
:1012DC000020FEF7EBFFC620FEF7FAFF0020FEF71A
:1012EC00E5FFC720FEF7F4FF1C20FEF7DFFFC82048
:1012FC00FEF7EEFF0020FEF7D9FFC920FEF7E8FF4E
:10130C000020FEF7D3FFA4F59410A0F5BA50FFF718
:10131C0007F9FFF73FF9FFF747F9FFF73BF9FFF73D
:10132C0047FA204604F50054FFF7B4F8AC42A2D1BA
:10133C00BDE8F047FFF7E8B8FFF718FA00220123E1
:10134C000E492A700E4A0B701370ECE61600002042
:10135C00604B0008AD000020243F0008504A0008F4
:10136C00343F00081C000020AE0000201C3F000889
:10137C002C3F000840A7130040A71500B000002028
:10138C00B10000202DE9F84F17460646894602F0B9
:10139C0096FD00283FD080463846FEF7D1FE054624
:1013AC004846FEF7CDFEA5EB000ABAF1000F044645
:1013BC00A8EB06081CDD3046FEF7C2FE5FFA88F586
:1013CC005FFA80FB09E016F80B10484602F80A1089
:1013DC005FFA83FBFEF7B4FE04462C44A34506EBF0
:1013EC000B020BF1FF33EED83846FEF7A9FE05468B
:1013FC0000235FFA88F807E07B5C384602F8083077
:10140C00FEF79EFE23460546D9B2A94206EB010221
:10141C0003F10104F0D3BDE8F88F00BF30B4002411
:10142C004FF41F053A4B3B4A196882B041F0010159
:10143C001960596818460A405A601A6822F084727A
:10144C0022F480321A601A6822F480221A605A68D8
:10145C0022F4FE025A609D60009401941A6842F4D2
:10146C0080321A6003E0009BB3F5A06F09D00368CB
:10147C0003F400330193009B01330093019B002B79
:10148C00F1D0234B1B6813F4003318BF01230193D5
:10149C00019B012B06D04FF000621F4B9A6002B0EB
:1014AC0030BC70471D491A4B08681A4640F01000B2
:1014BC000860086820F007000860086840F0020027
:1014CC0008605968596059685960596841F48061DD
:1014DC005960596821F47C115960596841F4E8113C
:1014EC005960196841F08071196013689B01FCD533
:1014FC005368074923F003035360536843F0020316
:10150C0053604B6803F00C03082BFAD1C3E700BF00
:10151C00001002400000FFF800ED00E00020024047
:10152C0030B45C4B1B7843B15B4A1388013B9BB2D4
:10153C00138013889BB2002B7AD0584B1A6812B1C7
:10154C001A68013A1A6056490B78002B2BD1554B6F
:10155C001A7832B11A78013AD2B21A701B78002B71
:10156C0057D05148037843B1504B514A9B68C3F351
:10157C00071313701378002B3FD04E4B1A7882B19F
:10158C001A78013AD2B21A701A7852B9474A4848B6
:10159C009268C2F3071202700278002A52D101231A
:1015AC000B7030BC7047414A414B9268C2F3071232
:1015BC001A701A786AB118781A78013A024008D170
:1015CC0014200A701A783C4C364BD2B22270187028
:1015DC00BEE73A484FF6F0750378344C5B00DBB24B
:1015EC0003700378082B84BF01230370E268007832
:1015FC002A4002432B4BE260AAE7314A13881B06B0
:10160C00FCD540231425002493802A4B1D700470B4
:10161C00B4E7264B26489B68274DC3F3071303708A
:10162C0004782B789C4213D001231F480B7099E748
:10163C002449087850B10B700120FF23224908700F
:10164C0013807AE714221A7030BC70470123F2E73A
:10165C001A4B1B780478D8B2202CE3B200F2968097
:10166C00012B40F29180023B1E2B00F28D80DFE8B3
:10167C0003F0898B2D8B8B8B988B8B8B8B8B8B8B24
:10168C00968B8B8B8B8B8B8B8B8B8B8B8B8B8B8B93
:10169C00940000BF510000201400002058000020CE
:1016AC00670000205600002008020020000C0140BA
:1016BC0066000020550000201202002018000020B7
:1016CC00003801405C0000204F0000200223821EE5
:1016DC00D2B2062A8EBF00245348845C5348544A25
:1016EC0000EBC400C35C534C13702378DB075AD552
:1016FC001378512B504B04D0187800F0FF0500B92B
:10170C0015704E480578012D04D115784E2D04BF67
:10171C0002250570187830B110784E2804BF60206F
:10172C001070002018701378002B49D0444803889F
:10173C001D06FCD513788380237913F0800F137862
:10174C0042D1422B4CD01378432B51D01378442BDD
:10175C0052D01378452B57D01378462B58D013788A
:10176C00472B59D01378482B5AD01378502B02D1D1
:10177C000722344B1A700123334803700F22334B6A
:10178C001A61EFE60123A2E70023A0E7402B15D056
:10179C00802B14BF0023072399E7052397E7042325
:1017AC0095E7032393E723789D07A1D42378580763
:1017BC009ED423781B079BD41F4BA2E7062386E7F6
:1017CC00012321480B70D9E7462B0DD01378472BFA
:1017DC0016D01378482BCED10A221A4B1A70CAE7AE
:1017EC000022184B1A70C6E70822164B1A70C2E773
:1017FC000122144B1A70BEE70222124B1A70BAE780
:10180C000922104B1A70B6E703220E4B1A70B2E77E
:10181C0004220C4B1A70AEE705220A4B1A70AAE789
:10182C000622084B1A70A6E7384B0008404B0008FC
:10183C001700002048000020090200200B020020A5
:10184C00003801408A00002008020020000C0140F2
:10185C00114A1388990612D530B4104990880B8818
:10186C000F4D0133DBB20F4CC0B20B80E854237820
:10187C0003F0FF010BB90F2802D030BC7047704742
:10188C00094813881B06FCD5435C01310C29938055
:10189C00F7D101232370F0E7003801400402002047
:1018AC0004010020B20000202000002001244FF48D
:1018BC001F002DE98048A94BA94A1968AFB02143F4
:1018CC0019605D6819462A405A601A68A54D22F0C5
:1018DC00847222F480321A601A6822F480221A6010
:1018EC005A6822F4FE025A6098601A689E4822F4E4
:1018FC0080321A601A6822F480221A601A6842F444
:10190C0080321A605A6822F0F0025A605A6822F447
:10191C00E06242F480625A605A6822F460525A6063
:10192C005A6822F4404242F400425A602A6802F09B
:10193C00380242F002022A605A6822F47C1242F405
:10194C00E8125A6004600B689F01FCD54B6824A810
:10195C0023F0030343F002034B60FFF791F8259B40
:10196C00824AA2FB03239B09013BB3F1807F09D27E
:10197C00F025002007217E4A7E4C536084F82350CA
:10198C0090601160754C7C4AA3697C4843F001035C
:10199C00A3615368516823F0706343F0007321F026
:1019AC00706151605360A369754A43F00403A361ED
:1019BC00A36924A943F00803A361A36943F01003AE
:1019CC00A3612492FFF7A4F86E4B24A92493FFF78C
:1019DC009FF86D4B24A92493FFF79AF80F224FF42C
:1019EC00704342614361A369684A43F4804343F006
:1019FC000503A36166481DA91D92FFF789F8654B85
:101A0C0063481DA91D93FFF783F800214FF416506E
:101A1C004FF44022A4F55844A3899BB243F40053DD
:101A2C00A381CDE91F012192238A24A823F44053DA
:101A3C001B041B0C2382A38923F4B05323F00C0347
:101A4C001B041B0C43F00C03A381A38A23F44073E7
:101A5C001B041B0CA382FFF713F8A389279913F41B
:101A6C00004F4FF0190314BF4FF496424FF4164237
:101A7C0003FB01F3B3FBF2F16424474B474AA3FB8E
:101A8C00010392895B0916044FEA031004FB13133C
:101A9C0002F1D3811B013233B3FBF4F303F00F03D8
:101AAC0003433E493E4A9BB20B81136843F020032B
:101ABC00136020233B4C63603B4B35481FA91F939D
:101ACC00FFF726F8394B1FA91F93FFF721F8384B66
:101ADC001FA91F93FFF71CF8102200214FF0007C68
:101AEC004FF0827E072608251C4F0261BB696420DB
:101AFC0043F4805343F00503BB61CDE9251C2D4B0A
:101B0C002792CDF890E01A8802F4415242F44572C3
:101B1C001A809A8B22F400621204120C9A831E8291
:101B2C001A8892B242F040021A80124BDB6884F899
:101B3C0023136560FEF778FBFEF77EFBFEF7A8FB30
:101B4C0085074FF0000437D50134E4B2052CF3D0EF
:101B5C00FEF79EFB8507F7D42EE000BF0010024075
:101B6C000000FFF80020024060004242D34D62109A
:101B7C0010E000E000ED00E000000140000C01402E
:101B8C0000F00310F00F02040F0002100002031803
:101B9C0000080140000403041F85EB51003801408C
:101BAC000C38014000E100E0A0000318400003489D
:101BBC001F000310003001400220FEF735FB01200E
:101BCC00FEF786FB0220FEF72FFBFEF753FB000609
:101BDC000CD40220FEF728FB0120FEF779FB022033
:101BEC00FEF722FB8020FEF761FBAFE76420FEF7D7
:101BFC001BFBFEF74DFB10F00204FAD10520FEF79B
:101C0C0067FB8A20FEF752FB0720FEF761FB8A2058
:101C1C00FEF74CFB0920FEF75BFB8A20FEF746FB28
:101C2C000620FEF755FB1920FEF740FB0820FEF7B7
:101C3C004FFB6420FEF73AFB0A20FEF749FB6420B9
:101C4C00FEF734FB2046FEF743FB0120FEF7ECFACF
:101C5C008020FEF72BFB0120FEF7E6FAE020FEF7D2
:101C6C0037FB2920FEF722FBE120FEF731FB032096
:101C7C00FEF71CFBE220FEF72BFBE620FEF716FB23
:101C8C00E320FEF725FB0120FEF710FBE420FEF716
:101C9C001FFB0120FEF70AFBFEF7FAFA4107FBD502
:101CAC000120FEF7C1FA0120FEF712FBFEF7E2FA63
:101CBC0000F0EF0040F00800FEF7F8FA0120FEF704
:101CCC0007FBFEF7D7FA40F00100C0B2FEF7EEFAC0
:101CDC000220FEF7FDFAFEF7CDFA00F07F0040F08F
:101CEC004000FEF7E3FA0220FEF7F2FAFEF7C2FA22
:101CFC0000F0F900FEF7DAFAFEF766FD0320FEF7B6
:101D0C00E7FAFEF7B7FA00F0FC00FEF7CFFA122064
:101D1C00FEF7DEFAFEF7AEFA00F0EF00FEF7C6FAB9
:101D2C001220FEF7D5FAFEF7A5FA40F00800C0B273
:101D3C00FEF7BCFA1220FEF7CBFAFEF79BFA00F086
:101D4C00F800FEF7B3FA1220FEF7C2FAFEF792FA89
:101D5C0000F07F00FEF7AAFA1320FEF7B9FAFEF79F
:101D6C0089FA00F07F00FEF7A1FA1320FEF7B0FA13
:101D7C00FEF780FA00F0BF00FEF798FA1320FEF78A
:101D8C00A7FAFEF777FA00F0DF00FEF78FFA1420BF
:101D9C00FEF79EFA2720FEF789FA1520FEF798FA2F
:101DAC000020FEF783FA1A20FEF792FABF20FEF706
:101DBC007DFA1B20FEF78CFA0320FEF777FA16202B
:101DCC00FEF786FA0920FEF771FA1720FEF780FA63
:101DDC000020FEF76BFA1820FEF77AFA0120FEF7C6
:101DEC0065FA1920FEF774FA0120FEF75FFA1C2041
:101DFC00FEF76EFA0920FEF759FA1D20FEF768FA75
:101E0C000020FEF753FA1E20FEF762FA0B20FEF7B5
:101E1C004DFA1F20FEF75CFA0220FEF747FAFEF798
:101E2C0081FCFEF7C5FC5E20FEF752FAFEF722FAA3
:101E3C0000F0FD0040F00100FEF738FAFEF772FCEE
:101E4C00FEF7C2FEFEF77CFC1220FEF741FAFEF70D
:101E5C0011FA40F04000C0B2FEF728FA01227A4B8A
:101E6C00DFF84CB2794CDFF84CA2794DDFF84882A0
:101E7C00784F794E1A70794B79491A880B8892B23F
:101E8C009BB29A4200F098800A460B889BF800108F
:101E9C000133DBB21380734AD25C734BD2B21B7822
:101EAC008BF80020002B40F0B080704B187800F0BD
:101EBC00FF03002840F0A9800F2A01F09A8406291C
:101ECC0001F08A840A2901F083840E2941F071847F
:101EDC000020A270664A8BF8000013780133DBB245
:101EEC001370624B1B78A3B1604A9BF800301278D8
:101EFC00002A40F0948000225E4803705E4B1A70FA
:101F0C005E4B1A705E4B1A70584A13780133DBB271
:101F1C0013700D2903D0544B1B78002B4CD0524B13
:101F2C001A7802F0FF0372B9534A1370534A1370B4
:101F3C00544A8AF8003013704E4A13704A4A137888
:101F4C000133DBB213709BF8003003F0F702032A65
:101F5C0032D00B2901F016840F2B41F220849AF811
:101F6C0000204948D2B283549AF8002003F0FD01B6
:101F7C000132D2B22C298AF8002001F0BD843A3B00
:101F8C00012B41F2B984414B1B78002B01F0BE842C
:101F9C00394B1B7833B1394A13781BB99AF8003096
:101FAC00DBB2137000223A4938480B7802700133C7
:101FBC00DBB20B702C4B1A70354B1B78002B40F09E
:101FCC00B582344B1B78002B78D1294B1B78002B16
:101FDC0040F0CF80304B1B78002B3FF44CAF2F4B95
:101FEC00264819782E4B1A78234B1B7890F800C092
:101FFC002C48007800FB0CF0C0B200902A48FFF788
:10200C0083F80023244A137035E704297FF469AF61
:10201C00164A9BF800301278002A3FF46CAF0B2B59
:10202C003FF477AF0B2901F08E84202B41F2098409
:10203C00134802781D48D2B28354114A13780133E5
:10204C00DBB2137065E700BF67000020480000207A
:10205C0062000020600000206400002004020020C8
:10206C000602002004010020540000205300002030
:10207C004E000020D5000020500000205100002010
:10208C00D4000020AC0000208C0000205E0000205A
:10209C0000010020D60000204F0000208A00002004
:1020AC00010100205C000020D8000020B4000020BA
:1020BC0068000020D70000200C020020B24B1B78D7
:1020CC0073B100221346B1490DF1B80CC85CAE498E
:1020DC0063440978013203F83C0CD3B29942F2D82C
:1020EC004FF00009A84B2EAA1B78A949134424A829
:1020FC0003F83C9C01F0DBFEA64B2EAA1B781FA913
:10210C00134424A803F8289C01F0C2FE24A8FEF76F
:10211C0017F88646A04B24AA02EB000C07CB0393BE
:10212C0024AB43F80E00039BCCF80410B3F800E08A
:10213C009B78CCF808208CF80E30ACF80CE0974962
:10214C00974A24A88DF89E90FFF71CF9954B964A58
:10215C001978964B1B7810784A46009024A8FEF705
:10216C00D3FF934B83F80090924B1B78002B3FF4DA
:10217C0031AF227898F800309A4200F065822378CB
:10218C0013F0080F3B8800F068829BB243F0010308
:10219C003B80237813F0040F3B8800F069829BB2DC
:1021AC0043F002033B80237813F0020F3B8800F0CE
:1021BC006A829BB243F004033B80237813F0010F37
:1021CC003B8800F06B829BB243F008033B807A495A
:1021DC0022780B78D2B20133DBB20B7088F8002076
:1021EC00617898F8012091422FD0627812F0080F94
:1021FC00328800F0EF8292B242F0010232806278B3
:10220C0012F0040F328800F0DF8292B242F0020228
:10221C003280627812F0020F328800F0CF8292B2D4
:10222C0042F004023280627812F0010F328800F022
:10223C00BF8292B242F00802328062785E4901336A
:10224C00DBB2D2B20B7088F80120A17898F802208A
:10225C00914258D0A27812F0800F328840F01B8542
:10226C0022F010021204120C3280A27812F0400FED
:10227C00328800F0ED8492B242F020023280A278D3
:10228C0012F0200F328800F0DC8492B242F040024F
:10229C003280A27812F0100F328800F0CB8492B208
:1022AC0042F080023280A27812F0080F328800F0DF
:1022BC00BA8492B242F480723280A27812F0040F87
:1022CC00328800F0A98492B242F400723280A27873
:1022DC0012F0020F328800F0988492B242F48062BD
:1022EC003280A27812F0010F328800F0878492B20B
:1022FC0042F400623280A2782F490133DBB2D2B2B1
:10230C000B7088F80220E17898F80320914255D0A0
:10231C00E27812F0100F3A8800F0B68492B242F0D4
:10232C0040023A80E27812F0080F3A8800F0A58457
:10233C0092B242F080023A80E27812F0040F3A88AE
:10234C0000F0948492B242F480723A80E27812F0F7
:10235C00020F3A8800F0838492B242F400723A8001
:10236C00E27812F0010F3A8800F0C88192B242F480
:10237C0080623A80E27810490133DBB2D2B20B7042
:10238C0088F803201AE000BFD4000020B40000201D
:10239C006C000020D5000020B8480008B8450008A3
:1023AC00B04500088A000020510000205000002099
:1023BC00D60000204E00002052000020217998F811
:1023CC000420914258D0227912F0800F3A8840F0C4
:1023DC00688422F010021204120C3A80227912F056
:1023EC00400F3A8800F0848192B242F020023A8089
:1023FC00227912F0200F2A8800F0748192B242F4F4
:10240C0000622A80227912F0100F2A8800F0648171
:10241C0092B242F480622A80227912F0080F2A8844
:10242C0000F0548192B242F400722A80227912F0A8
:10243C00040F2A8800F0448192B242F480722A8000
:10244C00227912F0020F2A8800F0348192B242F005
:10245C0080022A80227912F0010F2A8800F0248150
:10246C0092B242F040022A802279B6490133DBB2A3
:10247C00D2B20B7088F80420617998F8052091424B
:10248C004DD0627912F0400F3A8800F08B8192B2F5
:10249C0042F400623A80627912F0200F2A8800F030
:1024AC004B8192B242F001022A80627912F0100F35
:1024BC002A8800F03B8192B242F002022A806279B3
:1024CC0012F0080F2A8800F02B8192B242F004021D
:1024DC002A80627912F0040F2A8800F01B8192B2D4
:1024EC0042F008022A80627912F0020F2A8800F06A
:1024FC000B8192B242F010022A80627912F0010F25
:10250C002A8800F0A48092B242F020022A806279DC
:10251C008C490133DBB2D2B20B7088F80520002B4A
:10252C0040F05E810023884A137053E54FF0000C95
:10253C00864B0DF1900E0FCBAEE80700844AAEF837
:10254C000030844B92E8030009908DF8281093E832
:10255C000300814B0B908DF8301093E803007F4BF8
:10256C001990ADF8681093E803007D4B0D908DF831
:10257C00381093E803007B4B7B4A1B90ADF870102E
:10258C0093E80300794B08920F908DF840101B686C
:10259C0077494FEA134EADF81C30764B03C91D90AA
:1025AC00ADF8781093E803008DF84810724911903B
:1025BC0003C9ADF8801071491F9003C98DF85010F4
:1025CC006F49704B9AF80020139003C98DF858107E
:1025DC006D4983F800C015908DF81EE003C902F018
:1025EC00FF0317908DF8601062B16346674A684824
:1025FC00D25C591CC2549AF80020CBB29342F5D34A
:10260C00604A13704FF000094FF48052604901F892
:10261C000390604B1A61604B1B78022B01F05B80BE
:10262C005A4B5B787F2B00F0C4875C49584801F00B
:10263C0046FC002800F046834FF480520023554995
:10264C004A61574A1370BCE43E4B1B78C8E522F034
:10265C0020021204120C2A8059E723F001031B04F8
:10266C001B0C3B80237813F0040F3B887FF497AD51
:10267C0023F002031B041B0C3B80237813F0020F86
:10268C003B887FF496AD23F004031B041B0C3B80AA
:10269C00237813F0010F3B887FF495AD23F00803EA
:1026AC001B041B0C3B8092E522F040021204120C1E
:1026BC002A80D9E622F080021204120C2A80C9E684
:1026CC0022F480721204120C2A80B9E622F40072F1
:1026DC001204120C2A80A9E622F480621204120C55
:1026EC002A8099E622F400621204120C2A8089E6F0
:1026FC0022F020021204120C3A8079E622F4806255
:10270C001204120C3A8035E622F010021204120C5C
:10271C002A80F2E622F008021204120C2A80E2E669
:10272C0022F004021204120C2A80D2E622F00202D9
:10273C001204120C2A80C2E622F001021204120CBE
:10274C002A80B2E6520000204E000020444A0008C5
:10275C00544A00085C4A0008644A00086C4A0008A5
:10276C00744A00087C4A000820122000183F000818
:10277C00844A00088C4A0008944A00089C4A0008C5
:10278C00A44A00080A020020AC4A00088C00002071
:10279C00D8000020000C01400B020020643F000810
:1027AC000001002022F400621204120C3A8072E63E
:1027BC0022F008021204120C32803EE522F00402D0
:1027CC001204120C32802EE522F002021204120CBA
:1027DC0032801EE522F001021204120C32800EE54A
:1027EC004FF40043D44A1361D44B39882A88B6F885
:1027FC0000901B7889B292B2049103921FFA89F966
:10280C00002B00F03081C80701F16682049B990708
:10281C0001F18C82049B5A0701F1AE82049B4FF6A6
:10282C00FF701B0741F19D82FDF74CFF1820102112
:10283C00FDF71CFFC248FEF707F9039BD80601F110
:10284C000582039B4FF6FF70190741F1F381FDF7E9
:10285C0039FF18204FF49071FDF708FFB948FEF7C7
:10286C00F3F8039B4FF6FF701A0541F1C081FDF799
:10287C0029FF18204FF40471FDF7F8FEB248FEF75B
:10288C00E3F8039B4FF478405B0741F1A481FDF71B
:10289C0019FF182040F26F31FDF7E8FEAB48FEF748
:1028AC00D3F8049B13F0100301F0838140F2FF7006
:1028BC00FDF708FF10214FF48770FDF7D7FEA448F1
:1028CC00FEF7C2F80123A34A1370039B4FF6FF7067
:1028DC00590641F15181FDF7F5FE4FF458714FF453
:1028EC008770FDF7C3FE9C48FEF7AEF819F0010F98
:1028FC004FF6E04041F0518119F0020F01F08E814A
:10290C00FDF7E0FE4FF487707021FDF7AFFE9348A2
:10291C00FEF79AF819F0040F4FF6E04001F0208111
:10292C00FDF7D0FE4FF48770C021FDF79FFE8C4859
:10293C00FEF78AF819F0080F4FF6E04001F003811A
:10294C00FDF7C0FE4FF487704FF48071FDF78EFEDB
:10295C008448FEF779F819F0100F4FF6E04001F0BB
:10296C00E580FDF7AFFE4FF487704FF4A071FDF7D3
:10297C007DFE7D48FEF768F819F0200F4FF6E04019
:10298C0001F0C780FDF79EFE4FF487704FF4C071C5
:10299C00FDF76CFE7548FEF757F819F0400F4FF62F
:1029AC00E04001F04180FDF78DFE4FF487704FF44D
:1029BC00E071FDF75BFE6E48FEF746F819F0800FEC
:1029CC004FF6E04001F02380FDF77CFE4FF487705A
:1029DC004FF40071FDF74AFE6648FEF735F819F41E
:1029EC00807F4FF6E04001F00580FDF76BFE4FF461
:1029FC0087704FF41071FDF739FE5F48FEF724F82D
:102A0C0019F4007F4FF6E04000F0C587FDF75AFE41
:102A1C004FF420714FF48770FDF728FE5748FEF7EE
:102A2C0013F819F4806F4FF6E04000F0C587FDF7FE
:102A3C0049FE4FF430714FF48770FDF717FE504884
:102A4C00FEF702F819F4006F4FF6E04000F0C5876E
:102A5C00FDF738FE4FF487704FF44071FDF706FE1A
:102A6C004848FDF7F1FF484B1B78002B00F0BE8067
:102A7C00039B464A13F4806318BF01231370049B15
:102A8C004FF4C0601A0641F13880FDF71BFE42205E
:102A9C004FF42E71FDF7EAFD3D48FDF7D5FF049B81
:102AAC004FF4C0609B0641F11C80FDF70BFE4220E9
:102ABC004FF41271FDF7DAFD3648FDF7C5FF039BA5
:102ACC004FF4C060990641F10080FDF7FBFD4220F8
:102ADC004FF4CC71FDF7CAFD2F48FDF7B5FF039BF2
:102AEC004FF4C0609A0740F1D587FDF7EBFD10213C
:102AFC00E420FDF7BBFD2948FDF7A6FF049BDB0591
:102B0C0000F1D587049B980501F11D81049B5905A3
:102B1C0001F13F81039B4FF4C060DA0740F1AE87AF
:102B2C00FDF7D0FDE4204FF4F071FDF79FFD1C483C
:102B3C00FDF78AFF36E000BF000C0140B100002019
:102B4C00F84800082849000848490008604900086E
:102B5C0068490008AF00002070490008804900084F
:102B6C00884900088C4900089049000894490008DD
:102B7C00984900089C490008A0490008A44900088D
:102B8C00A8490008AC490008B0000020AD000020A6
:102B9C00B4490008BC490008C4490008D0490008E1
:102BAC00204A0008049B4FF4C0605B0640F15A8732
:102BBC00FDF788FDE4204FF42C71FDF757FD3C48E0
:102BCC00FDF742FF049B13F4006900F03A874FF6BF
:102BDC00E070FDF777FD40F22F31E420FDF746FD64
:102BEC003448FDF731FF0123334A137000224FF4B0
:102BFC00004332490A70324A536193E422F4006272
:102C0C001204120C3280FFF776BB22F4806212049D
:102C1C00120C3280FFF765BB22F400721204120C06
:102C2C003280FFF754BB22F480721204120C3280F3
:102C3C00FFF743BB22F080021204120C3280FFF724
:102C4C0032BB22F040021204120C3280FFF721BB7F
:102C5C0022F020021204120C3280FFF710BB22F477
:102C6C0000721204120C3A80FFF77ABB22F48072C5
:102C7C001204120C3A80FFF769BB22F08002120496
:102C8C00120C3A80FFF758BB22F040021204120CCF
:102C9C003A80FFF747BB92B242F010023280FFF746
:102CAC00E4BA92B242F010023A80FFF797BB00BF31
:102CBC0030420008384A0008AE00002052000020C4
:102CCC00000C0140A749A84801F0F9F8002800F0D1
:102CDC009A870123A54A1370A54A9AF800301278F6
:102CEC009B1A0D2B28DC0021A14A9AF8003012788F
:102CFC00A0489B1AC3F10E038B4201701CDD4FF0F0
:102D0C0001099D4B1B8803939748FDF719FA494617
:102D1C00974A9AF800E0039B92F800C0924A13522B
:102D2C00AEEB0C03934AC3F10E03481C994282F894
:102D3C0000905FFA80F9E7DB00200B238F4A1070BC
:102D4C00894A591CD25C2E2A00F025849AF800205E
:102D5C00CBB29A42F4D80021864A137020B1874B2B
:102D6C001970002941F03E800023854A1370854A72
:102D7C001378092B18D801335FFA83F9B9F1040FD2
:102D8C0082F8009010D18049774801F098F800281B
:102D9C0001F00D8000237D4A13702B88980540F1BB
:102DAC00B7870923794A1370794A7A496E48FEF736
:102DBC00E9FA794A79496C48FEF7E4FA24AA784989
:102DCC006948FEF7DFFA24AA76496748FEF7DAFA73
:102DDC00754A76496448FEF7D5FA754A75496248D2
:102DEC00FEF7D0FA09AA74495F48FEF7CBFA0BAA92
:102DFC0072495D48FEF7C6FA08AA71495A48FEF7AF
:102E0C00C1FA17AA15A95848FEF7BCFA6D4A6E49C3
:102E1C005548FEF7B7FA6D4A6D495348FEF7B2FABA
:102E2C006C4A6D495048FEF7ADFA6C4A6C494E48F5
:102E3C00FEF7A8FA6B4A6C494B48FEF7A3FA19AA9D
:102E4C006A494948FEF79EFA0DAA4F494648FEF7D3
:102E5C0099FA1BAA66494448FEF794FA0FAA6549E9
:102E6C004148FEF78FFA1DAA63493F48FEF78AFADC
:102E7C0011AA62493C48FEF785FA1FAA60493A48F4
:102E8C00FEF780FA13AA5F493748FEF77BFA464AE9
:102E9C005D493548FEF776FA434A5C493248FEF7FD
:102EAC0071FA414A5A493048FEF76CFA3E4A594980
:102EBC002D48FEF767FA584A58492B48FEF762FA34
:102ECC00574A58492848FEF75DFA574A5749264849
:102EDC00FEF758FA564A57492348FEF753FA564A12
:102EEC0056492148FEF74EFA554A56491E48FEF7F8
:102EFC0049FA554A55491C48FEF744FA544A554973
:102F0C001948FEF73FFA544A54491748FEF73AFA63
:102F1C00534A54491448FEF735FA534A5349124858
:102F2C00FEF730FA524A53490F48FEF72BFA524A31
:102F3C0052490D48FEF726FA514A52490A48FEF703
:102F4C0021FA514A51490848FEF71CFA504A514996
:102F5C000548FEF717FA504A50490348FEF712FA93
:102F6C009EE000BF743F0008D80000200B02002038
:102F7C00AC0000200A020020504A00085F0000202C
:102F8C00010100205D000020803F00088A00002025
:102F9C00983F0008A83F0008B83F0008C83F000849
:102FAC00D83F0008E83F0008F83F0008044000083C
:102FBC000C40000814400008F03F00081C400008BA
:102FCC00903F0008244000082840000830400008CA
:102FDC0034400008384000084040000844400008D5
:102FEC004C4000085440000864400008744000083D
:102FFC007C400008883F000884400008843F00089B
:10300C008C4000088C3F000894400008A040000849
:10301C00AC400008B8400008C4400008CC40000890
:10302C00D4400008D8400008DC400008E440000808
:10303C00EC400008F4400008FC4000080C4100087B
:10304C001C41000828410008344100084441000894
:10305C00544100085C410008644100086C410008C0
:10306C00744100087C410008844100089441000828
:10307C00A4410008B4410008C4410008D041000834
:10308C00DC410008E8410008F44100080042000857
:10309C000C4200081C42000828420008304200087C
:1030AC009E4A9F499F48FEF76DF99F4A9F499D484C
:1030BC00FEF768F99E4A9F499A48FEF763F99E4AC3
:1030CC009E499848FEF75EF99D4A9E499548FEF741
:1030DC0059F99D4A9D499348FEF754F99C4A9D49DC
:1030EC009048FEF74FF99C4A9C498E48FEF74AF9E6
:1030FC009B4A9C498B48FEF745F99B4A9B4989485A
:10310C00FEF740F99A4A9B498648FEF73BF99A4AE2
:10311C009A498448FEF736F9994A9A498148FEF74C
:10312C0031F9994A99497F48FEF72CF9984A9949FF
:10313C007C48FEF727F9984A98497A48FEF722F915
:10314C00974A98497748FEF71DF9974A9749754869
:10315C00FEF718F9964A97497248FEF713F9964A02
:10316C0096497048FEF70EF9954A96496D48FEF758
:10317C0009F9954A95496B48FEF704F9944A954923
:10318C006848FEF7FFF8944A94496648FEF7FAF847
:10319C00934A94496348FEF7F5F8934A934961487A
:1031AC00FEF7F0F8924A93495E48FEF7EBF8924A24
:1031BC0092495C48FEF7E6F8914A92495948FEF765
:1031CC00E1F8914A91495748FEF7DCF8904A914949
:1031DC005448FEF7D7F8904A90495248FEF7D2F877
:1031EC008F4A90494F48FEF7CDF88F4A8F494D488A
:1031FC00FEF7C8F88E4A8F494A48FEF7C3F88E4A44
:10320C008E494848FEF7BEF88D4A8E494548FEF770
:10321C00B9F88D4A8D494348FEF7B4F88C4A8D496C
:10322C004048FEF7AFF88C4A8C493E48FEF7AAF8A6
:10323C008B4A8C493B48FEF7A5F88B4A8B49394899
:10324C00FEF7A0F84FF00009894A8A493548FEF785
:10325C0099F8894A89493348FEF794F8884A89498C
:10326C003048FEF78FF8884A88492E48FEF78AF8CE
:10327C00874A88492B48FEF785F8874A87492948A9
:10328C00FEF780F8864A87492648FEF77BF8864A7F
:10329C0086492448FEF776F8854A86492148FEF788
:1032AC0071F8854A85491F48FEF76CF8844A8549B0
:1032BC001C48FEF767F8844A84491A48FEF762F8FE
:1032CC00834A84491748FEF75DF8834A83491548B9
:1032DC00FEF758F8824A83491248FEF753F8824A9F
:1032EC0082491048FEF74EF8814A82490D48FEF794
:1032FC0049F8814A81490B48FEF744F8804A8149D4
:10330C000848FEF73FF8804A80490648FEF73AF82D
:10331C007F4A80490348FEF735F8FDE03842000843
:10332C0040420008D8000020484200084C420008E7
:10333C0050420008544200085842000864420008F9
:10334C00704200088042000890420008A042000829
:10335C00B0420008B4420008B8420008BC42000861
:10336C00C0420008C4420008C8420008CC42000811
:10337C00D0420008D4420008D8420008E4420008B9
:10338C00F0420008F8420008004300080C43000813
:10339C001843000824430008304300083C4300084D
:1033AC004843000850430008584300086043000895
:1033BC0068430008704300087843000888430008FD
:1033CC0098430008A4430008B0430008B843000821
:1033DC00C0430008D0430008E0430008F043000855
:1033EC000044000810440008204400083044000841
:1033FC004044000850440008604400087044000831
:10340C00804400088C44000898440008A444000838
:10341C00B0440008BC440008C8440008D444000868
:10342C00E0440008EC440008F84400080445000897
:10343C0010450008204500083045000838450008B4
:10344C0040450008504500086045000870450008DC
:10345C00804500088C45000898450008A4450008E4
:10346C00B0450008B8450008C0450008C84500082C
:10347C00D0450008DC450008E8450008F445000884
:10348C000046000810460008204600083046000898
:10349C004046000850460008604600087046000888
:1034AC008046000890460008A0460008A846000880
:1034BC00B0460008B8460008C0460008D0460008D0
:1034CC00E0460008F0460008004700080C470008DA
:1034DC001847000824470008304700083847000800
:1034EC00404700084C47000858470008644700084C
:1034FC00704700087C47000888470008944700087C
:10350C00A0470008AC470008B8470008C0470008AF
:10351C00C8470008D4470008CF4AD049D048FDF727
:10352C0031FFD04AD049CE48FDF72CFFCF4AD049C5
:10353C00CB48FDF727FFCF4ACF49C948FDF722FFFB
:10354C00CE4ACF49C648FDF71DFFCE4ACE49C448E6
:10355C00FDF718FFCD4ACE49C148FDF713FFCD4A00
:10356C00CD49BF48FDF70EFFCC4ACD49BC48FDF70D
:10357C0009FFBB49CB4881F80F9000F098FCCA4B6F
:10358C00B7481978C94B1A784B46CDF80090FDF71F
:10359C00BBFDFFF751B80A469AF80010D2B28A4226
:1035AC0080F0B183002B40F0EA8113460120FFF735
:1035BC00C7BB4FF000090123BB4A82F80090BC4AFC
:1035CC001370FDF7BDF8FDF7ADF8FCF793FEFCF7B3
:1035DC00ADFEFCF7BBFEFCF7D5FEFCF7EFFEFCF7EF
:1035EC00FDFEFCF717FFFDF75FF8FCF7C5FFFDF7D5
:1035FC00DFF8FCF7B3FFBB20FCF76AFE4846FCF78C
:10360C0055FE5F20FCF764FE7A20FCF74FFE60202D
:10361C00FCF75EFE4846FCF749FE6120FCF758FEBD
:10362C001B20FCF743FE6220FCF752FE01231846D8
:10363C00FCF73CFEC020FCF74BFE7A20FCF736FE74
:10364C00C120FCF745FE4846FCF730FEC220FCF7D3
:10365C003FFE1B20FCF72AFEC320FCF739FE01239A
:10366C001846FCF723FEC620FCF732FE5720FCF769
:10367C001DFEC720FCF72CFE4846FCF717FEC820A1
:10368C00FCF726FE8A20FCF711FEC920FCF720FE71
:10369C0001231846FCF70AFECA20FCF719FE572036
:1036AC00FCF704FECB20FCF713FE4846FCF7FEFDAE
:1036BC004846FCF735FFFCF777FFFCF76BFF4FF440
:1036CC00FA60FCF7B1FD7B4B83F800907A4B83F8E2
:1036DC000090FEF7B1BF4846FDF70EF84FF47A7034
:1036EC00FCF7A2FD4FF47840FDF706F84FF47A7022
:1036FC00FCF79AFD4FF4FC60FCF7FEFF4FF47A7078
:10370C00FCF792FD1F20FCF7F7FF4FF47A70FCF7E3
:10371C008BFD4FF6FF70FCF7EFFF4FF47A70FCF760
:10372C0083FDFDF70DF8FDF721F84FF4C060FCF7B1
:10373C00C9FF10214220FCF799FF6048FDF784F97E
:10374C004FF44A714220FCF791FF5D48FDF77CF97C
:10375C004FF468714220FCF789FF5A48FDF774F961
:10376C004FF4C06248F2F073009249464A465648FC
:10377C00FDF736F80123554A82F80090544A13702D
:10378C00FEF74EBF012B00F04282002B7EF414ACEE
:10379C009AF800304F4ADBB21370FEF70DBC0122D1
:1037AC0000234D490A704D4A13704D4A1370FEF7B1
:1037BC0003BC082914D100229BF800308BF80020A0
:1037CC00E370484A13780133DBB21370FEF789BB00
:1037DC0000206270FEF77EBB00202270FEF77ABBE1
:1037EC00072915D100229BF800308BF8002023719B
:1037FC00E7E794463C4800880206FBD53B483A4A2A
:10380C00C05C01330C2B9080F4D16246FEF757BBA1
:10381C0009297EF4FAAB00229BF800308BF80020CB
:10382C00304A637113780133DBB21370304A13786A
:10383C00002B3EF470AB127802F0FF03002A3EF42A
:10384C005AAB00222B4803780133DBB20370284BB0
:10385C001A70FEF75EBB00BFE0470008F047000897
:10386C00D8000020004800080C4800081848000840
:10387C002448000830480008404800085048000818
:10388C0060480008704800087C4800088848000818
:10389C00944800087448000880480008A0480008B4
:1038AC00AC4800086C0000208A00002001010020B8
:1038BC0016000020B0000020B10000203C3F0008A2
:1038CC00343F00081C000020543F00080B0200206D
:1038DC000902002051000020000100205E000020A1
:1038EC00540000204E000020003801402000002031
:1038FC0053000020D6000020DB4A13780133DBB2E2
:10390C001370DA4B1B78002B7EF442ABD6499AF835
:10391C0000300A789B1A0B2B10DC9AF800300A78CE
:10392C009B1A0A2B7EF748ABD14B9B7A522B7EF419
:10393C0043ABCF4BDB7A442B7EF43EAB0123CB4A1B
:10394C001370FEF739BB012B00F0D381002B7EF4F2
:10395C00E2AAC84AC848127800780244C748D2B2D2
:10396C000270C5480278022A7EF6D5AAC4480278AD
:10397C000132D2B20270C34A1370FEF7CCBAC249FC
:10398C000A70C24A137020210122C148C154C14B94
:10399C001A70FFF7ECB9FCF795FE4FF420714FF459
:1039AC008770FCF763FEBC48FDF74EF819F4806F86
:1039BC004FF6E0407FF43BA8FCF784FE4FF43071E7
:1039CC004FF48770FCF752FEB348FDF73DF819F43D
:1039DC00006F4FF6E0407FF43BA8FCF773FE4FF40A
:1039EC0040714FF48770FCF741FEAB48FDF72CF8A3
:1039FC00FFF739B8FCF766FE4FF410714FF487707F
:103A0C00FCF734FEA448FDF71FF8FEF7F9BFFCF7EE
:103A1C0059FE4FF400714FF48770FCF727FE9E4857
:103A2C00FDF712F8FEF7DBBFFCF74CFE4FF4E0712C
:103A3C004FF48770FCF71AFE9748FDF705F8FEF770
:103A4C00BDBF4FF4C060FCF73DFE40F22F31E420C7
:103A5C00FCF70CFE9148FCF7F7FF914B83F80090B4
:103A6C00FFF7C4B8FCF72EFE4FF42C71E420FCF7E2
:103A7C00FDFD8948FCF7E8FFFFF7A4B8FCF722FE30
:103A8C004FF4F071E420FCF7F1FD8648FCF7DCFF05
:103A9C00FFF788B8FCF716FE1021E420FCF7E6FDD2
:103AAC008148FCF7D1FF049BDB057FF52BA84FF475
:103ABC00C060FCF707FE4FF48071E420FCF7D6FDE4
:103ACC007A48FCF7C1FFFFF725B8FCF7FBFD4FF474
:103ADC00CC714220FCF7CAFD7548FCF7B5FFFEF728
:103AEC00FEBFFCF7EFFD4FF412714220FCF7BEFD58
:103AFC007048FCF7A9FFFEF7E2BFFCF7E3FD4FF4BB
:103B0C002E714220FCF7B2FD6B48FCF79DFFFEF7CF
:103B1C00C6BFFCF7D7FD4FF4C0714FF48770FCF7AC
:103B2C00A5FD5D48FCF790FFFEF737BFFCF7CAFD1B
:103B3C004FF4A0714FF48770FCF798FD5648FCF7D2
:103B4C0083FFFEF719BFFCF7BDFD4FF480714FF4F6
:103B5C008770FCF78BFD5048FCF776FFFEF7FBBE39
:103B6C00FCF7B0FDC0214FF48770FCF77FFD4A488D
:103B7C00FCF76AFFFEF7DEBEFCF7A4FD4FF45871AC
:103B8C004FF48770FCF772FD4B48FCF75DFF19F0A2
:103B9C00010F4FF6E0403EF4AFAEFCF793FD702101
:103BAC004FF48770FCF762FD4448FCF74DFFFEF7BD
:103BBC00B1BE40F2FF700593FCF784FD10214FF469
:103BCC008770FCF753FD3B48FCF73EFF3C4A059BD6
:103BDC001370FEF77ABEFCF775FD40F26F311820BA
:103BEC00FCF744FD3448FCF72FFFFEF75ABEFCF7F8
:103BFC0069FD4FF404711820FCF738FD3148FCF7CF
:103C0C0023FFFEF73EBE304B1870FFF765B89AF8ED
:103C1C0000302E4ADBB21370FEF7CEB9FCF752FD22
:103C2C0070214FF48770FCF721FD2248FCF70CFF44
:103C3C00FEF770BEFCF746FD4FF490711820FCF7B0
:103C4C0015FD2348FCF700FFFEF70BBE4FF6FF7087
:103C5C00FCF738FD4FF490711820FCF707FD1D4858
:103C6C00FCF7F2FEFEF7FDBDAC0000205E0000206C
:103C7C008C000020D5000020D40000205100002032
:103C8C00D6000020530000200A0200205F00002014
:103C9C00D8000020010100206C3F0008683F00089C
:103CAC00AE0000202C4A0008E0490008F04900084A
:103CBC003C49000840490008C04800087849000801
:103CCC00AF000020544900080B02002050000020D7
:103CDC0038490008184900084FF6FF70FCF7F2FC51
:103CEC0010211820FCF7C2FC5948FCF7ADFEFEF77A
:103CFC00A4BD584B584A1B7812781344574ADBB270
:103D0C001370FEF708B9194601201346FFF724B8C3
:103D1C00534B1B78052BDAB253D02B88DB057FF580
:103D2C0043A808234E4A1370FFF73EB84FF6FF70B6
:103D3C00FCF7C8FC10211820FCF798FC4948FCF74C
:103D4C0083FEFEF77ABD4FF4C060FCF7BBFC4FF46A
:103D5C008071E420FCF78AFC4348FCF775FEFEF703
:103D6C00D9BEFCF7AFFC10211820FCF77FFC3F48B4
:103D7C00FCF76AFEFEF761BD4FF6FF70FCF7A2FC84
:103D8C0010211820FCF772FC3948FCF75DFEFEF799
:103D9C0054BD4FF4C060FCF795FC4FF48071E420E7
:103DAC00FCF764FC3348FCF74FFEFEF7B3BE324918
:103DBC00324800F084F858B10123294A1370FEF7F9
:103DCC00ECBF2B881906A8D5254B1A70FEF7ECBF53
:103DDC002B492A4800F073F830B10223204A1370A3
:103DEC00FEF7DBBF0B46CEE52649244800F067F80A
:103DFC0020B103231A4A1370FEF7CFBF22491F4884
:103E0C0000F05DF820B1164B83F80090FEF7C5BFAB
:103E1C001E491A4800F053F820B10623104A1370BB
:103E2C00FEF7BBBF154807A900F049F8034600B1DF
:103E3C0007230B4A1370FEF7B0BFDA003232B2FB25
:103E4C00F4F202F0070242EA0003FDF72ABE00BFBB
:103E5C00C8480008D5000020D400002050000020E5
:103E6C008A000020D8480008004A000808490008C9
:103E7C00E8480008104A0008843F0008D8000020D9
:103E8C00883F00088C3F0008903F0008943F0008D2
:103E9C00024610B5147813460132002CFAD1013BBE
:103EAC0011F8012B03F8012F002AF9D110BD03469C
:103EBC0011F8012B03F8012B002AF9D17047F0B54A
:103ECC000C7864B103461A7818465E1C0AB9104681
:103EDC0005E0944208D10D4615F8012F02B9F0BD4A
:103EEC0013F8017F9742F7D03346ECE7F8B500BFE3
:103EFC00F8BC08BC9E467047F8B500BFF8BC08BCBF
:043F0C009E46704716
:083F10000123013BFDD17047C4
:103F1800130000003A205245415220003A204652F0
:103F28004F4E54003A202020202020005452494768
:103F3800474552004D657465722046756E63746915
:103F48006F6E3A2046524F4E5400000031323334DF
:103F580035363738393041424300000020202020D0
:103F68002020202020202020000000005445535409
:103F78003A204449535000005644430056414300F8
:103F880041444300414143004F484D00487A0000F6
:103F980042616E6B3A20416D702F4F686D000000D2
:103FA80042414E4B3A20414D502F4F484D000000A2
:103FB80042616E6B3A2044432F4F686D2000000029
:103FC80042414E4B3A2044432F4F484D20000000B9
:103FD800204F56522E464C57204D4F484D0000005A
:103FE8004F562E52464C57204D4F484D000000006A
:103FF8004F766572666C6F7700000000204F56524E
:10400800464C5700206F70656E000000204F5045E9
:104018004E0000004B4F484D000000006D7320001B
:104028006D534543000000002020730053454300B2
:104038002020487A0000000020485A00206D487A65
:1040480020000000206D487A000000006F70656E47
:104058002020202020564443000000004F562E52B6
:10406800464C572020444356000000006D564443F8
:10407800000000006D414443000000006D564143BC
:10408800000000006D414143000000004F56522ED1
:10409800464C5720000000004F2E5652464C5720E1
:1040A800000000004F562E52464C572000000000DA
:1040B8004F5652464C572020000000004C6576654C
:1040C8006C0000004C4556454C0000006D586200DD
:1040D8004D58420052616E676500000052414E47DC
:1040E800450000005265616467732E0052444753CF
:1040F8002000000042756666657220456D7074790F
:104108000000000042554646455220454D5054593E
:1041180000000000526561642E4E6F2E0000000002
:10412800524447204E4F2E20000000005374642E46
:10413800446576696174696F6E00000053544420C9
:10414800444556202020202020000000417665723A
:104158006167650041564552414745004D696E2EDD
:10416800206174004D494E20415420004D61782E45
:10417800206174004D415820415420004E6F205357
:1041880063616E2043617264000000004E4F20534B
:1041980043414E20434152440000000048616C7482
:1041A800205363616E6E65720000000048414C54F4
:1041B800205343414E4E455200000000636C6F731C
:1041C80065204368616E3A00434C4F53452043488D
:1041D800414E3A006F70656E204368616E3A000088
:1041E8004F50454E204348414E3A000044656C61AB
:1041F800793A206175746F0044454C41593A204121
:1042080055544F0044656C61793A206D616E756153
:104218006C00000044454C41593A204D414E200065
:10422800486F6C6400000000484F4C4400000000D8
:10423800436F756E743A0000434F554E543A000070
:1042480048693A0048493A004C6F3A004C4F3A00E6
:10425800426565703A206E65766572004245455044
:104268003A204E4556455200426565703A20696EBF
:104278007369646520000000424545503A20494E64
:104288005349444520000000426565703A206F7527
:104298007473696465000000424545503A204F55E3
:1042A80054534944450000003A696E003A494E00AB
:1042B8003A6C6F003A4C4F003A6869003A48490036
:1042C8006D3A20004D3A2000623A2000423A200020
:1042D800556E6974733A206D58620000554E495402
:1042E800533A204D584200005265663A00000000DB
:1042F8005245463A00000000556E6974733A2043EF
:1043080000000000554E4954533A20430000000075
:10431800556E6974733A204600000000554E4954A2
:10432800533A204600000000556E6974733A204BDA
:1043380000000000554E4954533A204B000000003D
:10434800547970653A204300545950453A204A0040
:10435800547970653A205400545950453A20540015
:10436800547970653A204B00545950453A204B0017
:104378004A756E633A2073696D756C2E00000000F3
:104388004A554E433A2053494D2020200000000052
:104398004A756E633A204348310000004A554E433F
:1043A8003A2043483100000053696D3A200000006C
:1043B80053496D3A20000000547970653A204D6FDA
:1043C800762E4176672E0000545950453A4D4F5687
:1043D8004E47204156200000547970653A205265B6
:1043E8007065617400000000545950453A205245E8
:1043F8005045415400000000546573743A42756991
:104408006C642D496E000000544553543A42554996
:104418004C542D494E000000546573743A20446989
:1044280073706C6179000000544553543A20444934
:104438005350202020000000546573743A204B65C7
:104448007973202020000000544553543A204B45EE
:1044580059202020200000006E6F204B6579707273
:1044680065737320000000004E4F204B45592050C3
:1044780052455353000000004249543A2061757474
:104488006F2020004249543A204155544F202000C3
:104498004249543A206D616E75616C004249543A44
:1044A800204D414E55414C0042616E6B3A20667575
:1044B8006C6C200042414E4B3A2046554C4C200033
:1044C80042616E6B3A2053656E73650042414E4BF4
:1044D8003A2053454E53450042616E6B3A2056418F
:1044E8004320200042414E4B3A2056616320200071
:1044F80042616E6B3A20412F4420200042414E4BCE
:104508003A20412F4420200042616E6B3A205265C8
:10451800662F4D757800000042414E4B3A205245B7
:10452800462F4D55580000006D616E75616C3A005C
:104538004D414E55414C3A004661756C743A2063C2
:104548006F6E742E000000004641554C543A2043CB
:104558004F4E5420000000004661756C743A20707C
:1045680061757365000000004641554C543A20506F
:1045780041555345000000005265706561743A204A
:10458800796573005245504541543A2059455300C6
:104598005265706561743A206E6F2000524550452F
:1045A80041543A204E4F20004661756C740000005B
:1045B8004641554C540000004661696C733A00004E
:1045C8004641494C533A0000536176653F2059658E
:1045D80073000000534156453F20594553000000E1
:1045E800536176653F204E6F2000000053415645C9
:1045F8003F204E4F20000000526573746F72653A79
:1046080020466163742E0000524553544F52453A78
:104618002046414354200000526573746F72653A16
:104628002055736572200000524553544F52453A45
:10463800205553455220000043616C3A20204461C4
:10464800746573202020000043414C3A20204441E7
:10465800544553202020000043616C3A2020436FCA
:10466800756E74202020000043414C3A2020434FAF
:10467800554E54202020000043616C3A202052758A
:104688006E2020202020000043414C3A2020525523
:104698004E20202020200000446174653A0000006C
:1046A800444154453A0000004E6578743A000000D1
:1046B8004E4455453A000000547970653A20696EB9
:1046C8007465726E00000000545950453A20494EF6
:1046D8005420202000000000547970653A20657845
:1046E8007465726E00000000545950453A204558D0
:1046F8005420202000000000475049423A206F6EA5
:1047080020000000475049623A204F4E2000000028
:10471800475049423A206F66660000004750496298
:104728003A204F4646000000416464723A00000097
:10473800414444523A0000004C616E673A205343AA
:10474800504900004C414E473A205343504900001D
:104758004C616E673A203139392000004C414E4790
:104768003A203139392000004C616E673A203838D8
:10477800343200004C414E473A2038383432000079
:1047880052532D3233323A206F666600525320322C
:1047980033323A204F46460052532D3233323A20B4
:1047A8006F6E20005253203233323A204F4E200091
:1047B800426175643A000000424155443A000000E5
:1047C800466C6F773A206E6F6E650000464C4F5707
:1047D8003A204E4F4E450000466C6F773A20586F8E
:1047E8006E586F6666000000464C4F573A20586F67
:1047F8006E586F666600000054582D5465726D3A05
:10480800204352005458205445526D3A20435200D8
:1048180054582D5465726D3A204C46005458205413
:1048280045526D3A204C460054582D5465726D3AE5
:10483800204C4643520000005458205445526D3ACB
:10484800204C46435200000054582D5465726D3A6E
:104858002043524C460000005458205445526D3AAB
:104868002043524C460000006E657720436F646514
:104878003F0000004E455720434F44453F0000008D
:10488800696E636F7272656374210000494E434F0D
:10489800525245435420000043616C2061626F729C
:1048A8007465640043414C2041424F5254454400D2
:1048B8002020202020202020202020202020000030
:1048C800475049423A2052656D6F74652020200098
:1048D800475049423A2054616C6B20202020200028
:1048E800475049423A204C697374656E2020200075
:1048F800475049423A2053657276696365525100C0
:10490800475049423A204C6F63616C2020202000B8
:104918004255464645523A207265616420000000BF
:104928004255464645523A20777269746500000040
:1049380020202020202020202020202020000000CF
:104948004D617468656D617469637300202020206F
:1049580020202020202020004552524F52000000E5
:1049680053484946540000006D6F72652E2E0000B2
:10497800535445503A0000005343414E3A0000005A
:104988004348310043483200434833004348340029
:104998004348350043483600434837004348380009
:1049A8004348390043483130000000004558544519
:1049B800524E000054494D45520000005354415492
:1049C800495354494300000052414E47453A20415B
:1049D80075746F202000000052414E47453A204D23
:1049E800616E75616C000000524154453A20466181
:1049F8007374202000000000524154453A204D6550
:104A08006469756D00000000524154453A20536CAA
:104A18006F7720200000000046494C5445523A2048
:104A28004F6E200046494C5445523A204F66660066
:104A380052454C4154495645000000004F76657276
:104A4800666C6F7720204D1220000000204D122048
:104A580000000000206B122000000000206D561599
:104A6800200000002056152000000000206D411590
:104A7800200000002041152000000000206D56167F
:104A8800200000002056162000000000206D41166E
:104A9800200000002041162000000000105345436C
:104AA800000000002010732000000000444320563E
:104AB8004F4C544147450000414320564F4C544108
:104AC8004745000044432043555252454E54000088
:104AD80041432043555252454E540000325720520C
:104AE8004553495354414E43450000003457205222
:104AF8004553495354414E434500000046524551E1
:104B080055454E435900000054454D5045524154B7
:104B180055524500434F4E54494E5549545900008B
:104B280044494F4445000000504552494F44000055
:104B38000100020000000300484746454443424143
:104B4800504F4E4D4C4B00005857565554535251E8
:104B5800605F5E5D5C5B5A00B44A0008C04A0008AA
:104B6800CC4A0008D84A0008E44A0008F44A000879
:104B7800044B0008104B00081C4B0008284B000889
:044B8800304B0008A6
:044B8C0031010008EB
:044B90000D0100080B
:104B940002040608000000000102030401020304E9
:104BA40006070809FF000142010000000700000099
:0C4BB4003230303020563130202080009C
:040000050800015D91
:00000001FF
